{
  "contractName": "ThrowProxy",
  "abi": [
    {
      "constant": true,
      "inputs": [],
      "name": "target",
      "outputs": [
        {
          "name": "",
          "type": "address"
        }
      ],
      "payable": false,
      "stateMutability": "view",
      "type": "function"
    },
    {
      "inputs": [
        {
          "name": "_target",
          "type": "address"
        }
      ],
      "payable": false,
      "stateMutability": "nonpayable",
      "type": "constructor"
    },
    {
      "payable": false,
      "stateMutability": "nonpayable",
      "type": "fallback"
    },
    {
      "constant": false,
      "inputs": [],
      "name": "execute",
      "outputs": [
        {
          "name": "",
          "type": "bool"
        }
      ],
      "payable": false,
      "stateMutability": "nonpayable",
      "type": "function"
    }
  ],
  "bytecode": "0x6060604052341561000f57600080fd5b60405160208061031b83398101604052808051906020019091905050806000806101000a81548173ffffffffffffffffffffffffffffffffffffffff021916908373ffffffffffffffffffffffffffffffffffffffff160217905550506102a08061007b6000396000f30060606040526004361061004c576000357c0100000000000000000000000000000000000000000000000000000000900463ffffffff168063614619541461006c578063d4b8399214610099575b341561005757600080fd5b600036600191906100699291906101cf565b50005b341561007757600080fd5b61007f6100ee565b604051808215151515815260200191505060405180910390f35b34156100a457600080fd5b6100ac6101aa565b604051808273ffffffffffffffffffffffffffffffffffffffff1673ffffffffffffffffffffffffffffffffffffffff16815260200191505060405180910390f35b60008060009054906101000a900473ffffffffffffffffffffffffffffffffffffffff1673ffffffffffffffffffffffffffffffffffffffff166001604051808280546001816001161561010002031660029004801561018f5780601f106101645761010080835404028352916020019161018f565b820191906000526020600020905b81548152906001019060200180831161017257829003601f168201915b50509150506000604051808303816000865af1915050905090565b6000809054906101000a900473ffffffffffffffffffffffffffffffffffffffff1681565b828054600181600116156101000203166002900490600052602060002090601f016020900481019282601f1061021057803560ff191683800117855561023e565b8280016001018555821561023e579182015b8281111561023d578235825591602001919060010190610222565b5b50905061024b919061024f565b5090565b61027191905b8082111561026d576000816000905550600101610255565b5090565b905600a165627a7a7230582055eb3e4ddaaddbd5876ace3b7343c7dc418ce76de03584e99a82f10ac4049d330029",
  "source": "pragma solidity ^0.4.21;\n\ncontract ThrowProxy {\n  address public target;\n  bytes data;\n\n  function ThrowProxy(address _target) public  {\n    target = _target;\n  }\n\n  //prime the data using the fallback function.\n  function() public  {\n    data = msg.data;\n  }\n\n  function execute()  public returns (bool) {\n    return target.call(data);\n  }\n}\n",
  "sourcePath": "/Users/hackdom/Projects/ethereum-libraries-token/contracts/ThrowProxy.sol",
  "compiler": {
    "name": "solc",
    "version": "0.4.21+commit.dfe3193c.Emscripten.clang"
  },
  "schemaVersion": "2.0.0",
  "updatedAt": "2018-04-09T21:06:57.639Z"
}