{
  "contractName": "TokenLibTestSpender",
  "abi": [
    {
      "inputs": [
        {
          "name": "testContract",
          "type": "address"
        }
      ],
      "payable": false,
      "stateMutability": "nonpayable",
      "type": "constructor"
    },
    {
      "constant": false,
      "inputs": [
        {
          "name": "owner",
          "type": "address"
        },
        {
          "name": "amount",
          "type": "uint256"
        }
      ],
      "name": "spend",
      "outputs": [
        {
          "name": "",
          "type": "bool"
        }
      ],
      "payable": false,
      "stateMutability": "nonpayable",
      "type": "function"
    },
    {
      "constant": false,
      "inputs": [
        {
          "name": "newOwner",
          "type": "address"
        }
      ],
      "name": "changeOwnerBack",
      "outputs": [],
      "payable": false,
      "stateMutability": "nonpayable",
      "type": "function"
    }
  ],
  "bytecode": "0x6060604052341561000f57600080fd5b60405160208061037983398101604052808051906020019091905050806000806101000a81548173ffffffffffffffffffffffffffffffffffffffff021916908373ffffffffffffffffffffffffffffffffffffffff160217905550506102fe8061007b6000396000f30060606040526004361061004c576000357c0100000000000000000000000000000000000000000000000000000000900463ffffffff1680635ea18b9e14610051578063af7d6ca31461008a575b600080fd5b341561005c57600080fd5b610088600480803573ffffffffffffffffffffffffffffffffffffffff169060200190919050506100e4565b005b341561009557600080fd5b6100ca600480803573ffffffffffffffffffffffffffffffffffffffff169060200190919080359060200190919050506101ba565b604051808215151515815260200191505060405180910390f35b6000809054906101000a900473ffffffffffffffffffffffffffffffffffffffff1673ffffffffffffffffffffffffffffffffffffffff1663a6f9dae1826040518263ffffffff167c0100000000000000000000000000000000000000000000000000000000028152600401808273ffffffffffffffffffffffffffffffffffffffff1673ffffffffffffffffffffffffffffffffffffffff168152602001915050602060405180830381600087803b151561019f57600080fd5b5af115156101ac57600080fd5b505050604051805190505050565b60008060009054906101000a900473ffffffffffffffffffffffffffffffffffffffff1673ffffffffffffffffffffffffffffffffffffffff166323b872dd8430856040518463ffffffff167c0100000000000000000000000000000000000000000000000000000000028152600401808473ffffffffffffffffffffffffffffffffffffffff1673ffffffffffffffffffffffffffffffffffffffff1681526020018373ffffffffffffffffffffffffffffffffffffffff1673ffffffffffffffffffffffffffffffffffffffff1681526020018281526020019350505050602060405180830381600087803b15156102b357600080fd5b5af115156102c057600080fd5b505050604051805190509050929150505600a165627a7a7230582065fba668b2ca9e06034ad982dd4f573eb6a40f7fcb741340bf30014b5350fda60029",
  "source": "pragma solidity ^0.4.21;\n\nimport \"./TokenLibTestContract.sol\";\n\ncontract TokenLibTestSpender{\n\n  TokenLibTestContract t;\n\n  function TokenLibTestSpender(address testContract) public {\n    t = TokenLibTestContract(testContract);\n  }\n\n  function spend(address owner, uint256 amount) public returns (bool){\n    return t.transferFrom(owner, this, amount);\n  }\n\n  function changeOwnerBack(address newOwner) public {\n    t.changeOwner(newOwner);\n  }\n\n}\n",
  "sourcePath": "/Users/hackdom/Projects/ethereum-libraries-token/contracts/TokenLibTestSpender.sol",
  "compiler": {
    "name": "solc",
    "version": "0.4.21+commit.dfe3193c.Emscripten.clang"
  },
  "schemaVersion": "2.0.0",
  "updatedAt": "2018-04-09T21:06:57.644Z"
}