{
  "contractName": "TokenLibTestContract",
  "abi": [
    {
      "inputs": [
        {
          "name": "owner",
          "type": "address"
        },
        {
          "name": "name",
          "type": "string"
        },
        {
          "name": "symbol",
          "type": "string"
        },
        {
          "name": "decimals",
          "type": "uint8"
        },
        {
          "name": "initialSupply",
          "type": "uint256"
        },
        {
          "name": "allowMinting",
          "type": "bool"
        }
      ],
      "payable": false,
      "stateMutability": "nonpayable",
      "type": "constructor"
    },
    {
      "anonymous": false,
      "inputs": [
        {
          "indexed": true,
          "name": "from",
          "type": "address"
        },
        {
          "indexed": true,
          "name": "to",
          "type": "address"
        },
        {
          "indexed": false,
          "name": "value",
          "type": "uint256"
        }
      ],
      "name": "Transfer",
      "type": "event"
    },
    {
      "anonymous": false,
      "inputs": [
        {
          "indexed": true,
          "name": "owner",
          "type": "address"
        },
        {
          "indexed": true,
          "name": "spender",
          "type": "address"
        },
        {
          "indexed": false,
          "name": "value",
          "type": "uint256"
        }
      ],
      "name": "Approval",
      "type": "event"
    },
    {
      "anonymous": false,
      "inputs": [
        {
          "indexed": false,
          "name": "from",
          "type": "address"
        },
        {
          "indexed": false,
          "name": "to",
          "type": "address"
        }
      ],
      "name": "OwnerChange",
      "type": "event"
    },
    {
      "anonymous": false,
      "inputs": [
        {
          "indexed": true,
          "name": "burner",
          "type": "address"
        },
        {
          "indexed": false,
          "name": "value",
          "type": "uint256"
        }
      ],
      "name": "Burn",
      "type": "event"
    },
    {
      "anonymous": false,
      "inputs": [
        {
          "indexed": false,
          "name": "mintingClosed",
          "type": "bool"
        }
      ],
      "name": "MintingClosed",
      "type": "event"
    },
    {
      "constant": true,
      "inputs": [],
      "name": "owner",
      "outputs": [
        {
          "name": "",
          "type": "address"
        }
      ],
      "payable": false,
      "stateMutability": "view",
      "type": "function"
    },
    {
      "constant": true,
      "inputs": [],
      "name": "name",
      "outputs": [
        {
          "name": "",
          "type": "string"
        }
      ],
      "payable": false,
      "stateMutability": "view",
      "type": "function"
    },
    {
      "constant": true,
      "inputs": [],
      "name": "symbol",
      "outputs": [
        {
          "name": "",
          "type": "string"
        }
      ],
      "payable": false,
      "stateMutability": "view",
      "type": "function"
    },
    {
      "constant": true,
      "inputs": [],
      "name": "decimals",
      "outputs": [
        {
          "name": "",
          "type": "uint8"
        }
      ],
      "payable": false,
      "stateMutability": "view",
      "type": "function"
    },
    {
      "constant": true,
      "inputs": [],
      "name": "totalSupply",
      "outputs": [
        {
          "name": "",
          "type": "uint256"
        }
      ],
      "payable": false,
      "stateMutability": "view",
      "type": "function"
    },
    {
      "constant": true,
      "inputs": [],
      "name": "initialSupply",
      "outputs": [
        {
          "name": "",
          "type": "uint256"
        }
      ],
      "payable": false,
      "stateMutability": "view",
      "type": "function"
    },
    {
      "constant": true,
      "inputs": [
        {
          "name": "who",
          "type": "address"
        }
      ],
      "name": "balanceOf",
      "outputs": [
        {
          "name": "",
          "type": "uint256"
        }
      ],
      "payable": false,
      "stateMutability": "view",
      "type": "function"
    },
    {
      "constant": true,
      "inputs": [
        {
          "name": "_owner",
          "type": "address"
        },
        {
          "name": "_spender",
          "type": "address"
        }
      ],
      "name": "allowance",
      "outputs": [
        {
          "name": "",
          "type": "uint256"
        }
      ],
      "payable": false,
      "stateMutability": "view",
      "type": "function"
    },
    {
      "constant": false,
      "inputs": [
        {
          "name": "to",
          "type": "address"
        },
        {
          "name": "value",
          "type": "uint256"
        }
      ],
      "name": "transfer",
      "outputs": [
        {
          "name": "ok",
          "type": "bool"
        }
      ],
      "payable": false,
      "stateMutability": "nonpayable",
      "type": "function"
    },
    {
      "constant": false,
      "inputs": [
        {
          "name": "from",
          "type": "address"
        },
        {
          "name": "to",
          "type": "address"
        },
        {
          "name": "value",
          "type": "uint256"
        }
      ],
      "name": "transferFrom",
      "outputs": [
        {
          "name": "ok",
          "type": "bool"
        }
      ],
      "payable": false,
      "stateMutability": "nonpayable",
      "type": "function"
    },
    {
      "constant": false,
      "inputs": [
        {
          "name": "spender",
          "type": "address"
        },
        {
          "name": "value",
          "type": "uint256"
        }
      ],
      "name": "approve",
      "outputs": [
        {
          "name": "ok",
          "type": "bool"
        }
      ],
      "payable": false,
      "stateMutability": "nonpayable",
      "type": "function"
    },
    {
      "constant": false,
      "inputs": [
        {
          "name": "spender",
          "type": "address"
        },
        {
          "name": "valueChange",
          "type": "uint256"
        },
        {
          "name": "increase",
          "type": "bool"
        }
      ],
      "name": "approveChange",
      "outputs": [
        {
          "name": "ok",
          "type": "bool"
        }
      ],
      "payable": false,
      "stateMutability": "nonpayable",
      "type": "function"
    },
    {
      "constant": false,
      "inputs": [
        {
          "name": "newOwner",
          "type": "address"
        }
      ],
      "name": "changeOwner",
      "outputs": [
        {
          "name": "ok",
          "type": "bool"
        }
      ],
      "payable": false,
      "stateMutability": "nonpayable",
      "type": "function"
    },
    {
      "constant": false,
      "inputs": [
        {
          "name": "amount",
          "type": "uint256"
        }
      ],
      "name": "mintToken",
      "outputs": [
        {
          "name": "ok",
          "type": "bool"
        }
      ],
      "payable": false,
      "stateMutability": "nonpayable",
      "type": "function"
    },
    {
      "constant": false,
      "inputs": [],
      "name": "closeMint",
      "outputs": [
        {
          "name": "ok",
          "type": "bool"
        }
      ],
      "payable": false,
      "stateMutability": "nonpayable",
      "type": "function"
    },
    {
      "constant": false,
      "inputs": [
        {
          "name": "amount",
          "type": "uint256"
        }
      ],
      "name": "burnToken",
      "outputs": [
        {
          "name": "ok",
          "type": "bool"
        }
      ],
      "payable": false,
      "stateMutability": "nonpayable",
      "type": "function"
    }
  ],
  "bytecode": "0x6060604052341561000f57600080fd5b6040516111b93803806111b983398101604052808051906020019091908051820191906020018051820191906020018051906020019091908051906020019091908051906020019091905050600073__TokenLib______________________________639329297290918888888888886040518863ffffffff167c0100000000000000000000000000000000000000000000000000000000028152600401808881526020018773ffffffffffffffffffffffffffffffffffffffff1673ffffffffffffffffffffffffffffffffffffffff16815260200180602001806020018660ff1660ff16815260200185815260200184151515158152602001838103835288818151815260200191508051906020019080838360005b83811015610142578082015181840152602081019050610127565b50505050905090810190601f16801561016f5780820380516001836020036101000a031916815260200191505b50838103825287818151815260200191508051906020019080838360005b838110156101a857808201518184015260208101905061018d565b50505050905090810190601f1680156101d55780820380516001836020036101000a031916815260200191505b50995050505050505050505060006040518083038186803b15156101f857600080fd5b5af4151561020557600080fd5b505050505050505050610f9c8061021d6000396000f3006060604052600436106100e6576000357c0100000000000000000000000000000000000000000000000000000000900463ffffffff16806306fdde03146100eb578063095ea7b31461017957806318160ddd146101d357806323b872dd146101fc578063313ce56714610275578063378dc3dc146102a457806364f101f0146102cd57806370a08231146102fa5780637b47ec1a146103475780638bbdfaa6146103825780638da5cb5b146103e757806395d89b411461043c578063a6f9dae1146104ca578063a9059cbb1461051b578063c634d03214610575578063dd62ed3e146105b0575b600080fd5b34156100f657600080fd5b6100fe61061c565b6040518080602001828103825283818151815260200191508051906020019080838360005b8381101561013e578082015181840152602081019050610123565b50505050905090810190601f16801561016b5780820380516001836020036101000a031916815260200191505b509250505060405180910390f35b341561018457600080fd5b6101b9600480803573ffffffffffffffffffffffffffffffffffffffff169060200190919080359060200190919050506106c7565b604051808215151515815260200191505060405180910390f35b34156101de57600080fd5b6101e6610790565b6040518082815260200191505060405180910390f35b341561020757600080fd5b61025b600480803573ffffffffffffffffffffffffffffffffffffffff1690602001909190803573ffffffffffffffffffffffffffffffffffffffff1690602001909190803590602001909190505061079c565b604051808215151515815260200191505060405180910390f35b341561028057600080fd5b61028861089a565b604051808260ff1660ff16815260200191505060405180910390f35b34156102af57600080fd5b6102b76108b3565b6040518082815260200191505060405180910390f35b34156102d857600080fd5b6102e06108bf565b604051808215151515815260200191505060405180910390f35b341561030557600080fd5b610331600480803573ffffffffffffffffffffffffffffffffffffffff16906020019091905050610949565b6040518082815260200191505060405180910390f35b341561035257600080fd5b6103686004808035906020019091905050610a09565b604051808215151515815260200191505060405180910390f35b341561038d57600080fd5b6103cd600480803573ffffffffffffffffffffffffffffffffffffffff169060200190919080359060200190919080351515906020019091905050610a9d565b604051808215151515815260200191505060405180910390f35b34156103f257600080fd5b6103fa610b73565b604051808273ffffffffffffffffffffffffffffffffffffffff1673ffffffffffffffffffffffffffffffffffffffff16815260200191505060405180910390f35b341561044757600080fd5b61044f610b9f565b6040518080602001828103825283818151815260200191508051906020019080838360005b8381101561048f578082015181840152602081019050610474565b50505050905090810190601f1680156104bc5780820380516001836020036101000a031916815260200191505b509250505060405180910390f35b34156104d557600080fd5b610501600480803573ffffffffffffffffffffffffffffffffffffffff16906020019091905050610c4a565b604051808215151515815260200191505060405180910390f35b341561052657600080fd5b61055b600480803573ffffffffffffffffffffffffffffffffffffffff16906020019091908035906020019091905050610d0a565b604051808215151515815260200191505060405180910390f35b341561058057600080fd5b6105966004808035906020019091905050610dd3565b604051808215151515815260200191505060405180910390f35b34156105bb57600080fd5b610606600480803573ffffffffffffffffffffffffffffffffffffffff1690602001909190803573ffffffffffffffffffffffffffffffffffffffff16906020019091905050610e67565b6040518082815260200191505060405180910390f35b610624610f5c565b60006003018054600181600116156101000203166002900480601f0160208091040260200160405190810160405280929190818152602001828054600181600116156101000203166002900480156106bd5780601f10610692576101008083540402835291602001916106bd565b820191906000526020600020905b8154815290600101906020018083116106a057829003601f168201915b5050505050905090565b60008073__TokenLib______________________________638ca979ca909185856040518463ffffffff167c0100000000000000000000000000000000000000000000000000000000028152600401808481526020018373ffffffffffffffffffffffffffffffffffffffff1673ffffffffffffffffffffffffffffffffffffffff168152602001828152602001935050505060206040518083038186803b151561077157600080fd5b5af4151561077e57600080fd5b50505060405180519050905092915050565b60008060050154905090565b60008073__TokenLib______________________________6321a6a23d90918686866040518563ffffffff167c0100000000000000000000000000000000000000000000000000000000028152600401808581526020018473ffffffffffffffffffffffffffffffffffffffff1673ffffffffffffffffffffffffffffffffffffffff1681526020018373ffffffffffffffffffffffffffffffffffffffff1673ffffffffffffffffffffffffffffffffffffffff16815260200182815260200194505050505060206040518083038186803b151561087a57600080fd5b5af4151561088757600080fd5b5050506040518051905090509392505050565b60008060070160149054906101000a900460ff16905090565b60008060060154905090565b60008073__TokenLib______________________________63a7ccd77690916040518263ffffffff167c01000000000000000000000000000000000000000000000000000000000281526004018082815260200191505060206040518083038186803b151561092d57600080fd5b5af4151561093a57600080fd5b50505060405180519050905090565b60008073__TokenLib______________________________633af00d0f9091846040518363ffffffff167c0100000000000000000000000000000000000000000000000000000000028152600401808381526020018273ffffffffffffffffffffffffffffffffffffffff1673ffffffffffffffffffffffffffffffffffffffff1681526020019250505060206040518083038186803b15156109eb57600080fd5b5af415156109f857600080fd5b505050604051805190509050919050565b60008073__TokenLib______________________________636269321c9091846040518363ffffffff167c0100000000000000000000000000000000000000000000000000000000028152600401808381526020018281526020019250505060206040518083038186803b1515610a7f57600080fd5b5af41515610a8c57600080fd5b505050604051805190509050919050565b60008073__TokenLib______________________________63bd03185c90918686866040518563ffffffff167c0100000000000000000000000000000000000000000000000000000000028152600401808581526020018473ffffffffffffffffffffffffffffffffffffffff1673ffffffffffffffffffffffffffffffffffffffff1681526020018381526020018215151515815260200194505050505060206040518083038186803b1515610b5357600080fd5b5af41515610b6057600080fd5b5050506040518051905090509392505050565b60008060070160009054906101000a900473ffffffffffffffffffffffffffffffffffffffff16905090565b610ba7610f5c565b60006004018054600181600116156101000203166002900480601f016020809104026020016040519081016040528092919081815260200182805460018160011615610100020316600290048015610c405780601f10610c1557610100808354040283529160200191610c40565b820191906000526020600020905b815481529060010190602001808311610c2357829003601f168201915b5050505050905090565b60008073__TokenLib______________________________636f71ca3c9091846040518363ffffffff167c0100000000000000000000000000000000000000000000000000000000028152600401808381526020018273ffffffffffffffffffffffffffffffffffffffff1673ffffffffffffffffffffffffffffffffffffffff1681526020019250505060206040518083038186803b1515610cec57600080fd5b5af41515610cf957600080fd5b505050604051805190509050919050565b60008073__TokenLib______________________________63d4b1770a909185856040518463ffffffff167c0100000000000000000000000000000000000000000000000000000000028152600401808481526020018373ffffffffffffffffffffffffffffffffffffffff1673ffffffffffffffffffffffffffffffffffffffff168152602001828152602001935050505060206040518083038186803b1515610db457600080fd5b5af41515610dc157600080fd5b50505060405180519050905092915050565b60008073__TokenLib______________________________63f8f095f29091846040518363ffffffff167c0100000000000000000000000000000000000000000000000000000000028152600401808381526020018281526020019250505060206040518083038186803b1515610e4957600080fd5b5af41515610e5657600080fd5b505050604051805190509050919050565b60008073__TokenLib______________________________63ac9b44f7909185856040518463ffffffff167c0100000000000000000000000000000000000000000000000000000000028152600401808481526020018373ffffffffffffffffffffffffffffffffffffffff1673ffffffffffffffffffffffffffffffffffffffff1681526020018273ffffffffffffffffffffffffffffffffffffffff1673ffffffffffffffffffffffffffffffffffffffff168152602001935050505060206040518083038186803b1515610f3d57600080fd5b5af41515610f4a57600080fd5b50505060405180519050905092915050565b6020604051908101604052806000815250905600a165627a7a7230582035821fa7684ebf7449cc3af25dc1a947ff0cbad3b9bcfabbbeb662ff454d2b980029",
  "deployedBytecode": "0x6060604052600436106100e6576000357c0100000000000000000000000000000000000000000000000000000000900463ffffffff16806306fdde03146100eb578063095ea7b31461017957806318160ddd146101d357806323b872dd146101fc578063313ce56714610275578063378dc3dc146102a457806364f101f0146102cd57806370a08231146102fa5780637b47ec1a146103475780638bbdfaa6146103825780638da5cb5b146103e757806395d89b411461043c578063a6f9dae1146104ca578063a9059cbb1461051b578063c634d03214610575578063dd62ed3e146105b0575b600080fd5b34156100f657600080fd5b6100fe61061c565b6040518080602001828103825283818151815260200191508051906020019080838360005b8381101561013e578082015181840152602081019050610123565b50505050905090810190601f16801561016b5780820380516001836020036101000a031916815260200191505b509250505060405180910390f35b341561018457600080fd5b6101b9600480803573ffffffffffffffffffffffffffffffffffffffff169060200190919080359060200190919050506106c7565b604051808215151515815260200191505060405180910390f35b34156101de57600080fd5b6101e6610790565b6040518082815260200191505060405180910390f35b341561020757600080fd5b61025b600480803573ffffffffffffffffffffffffffffffffffffffff1690602001909190803573ffffffffffffffffffffffffffffffffffffffff1690602001909190803590602001909190505061079c565b604051808215151515815260200191505060405180910390f35b341561028057600080fd5b61028861089a565b604051808260ff1660ff16815260200191505060405180910390f35b34156102af57600080fd5b6102b76108b3565b6040518082815260200191505060405180910390f35b34156102d857600080fd5b6102e06108bf565b604051808215151515815260200191505060405180910390f35b341561030557600080fd5b610331600480803573ffffffffffffffffffffffffffffffffffffffff16906020019091905050610949565b6040518082815260200191505060405180910390f35b341561035257600080fd5b6103686004808035906020019091905050610a09565b604051808215151515815260200191505060405180910390f35b341561038d57600080fd5b6103cd600480803573ffffffffffffffffffffffffffffffffffffffff169060200190919080359060200190919080351515906020019091905050610a9d565b604051808215151515815260200191505060405180910390f35b34156103f257600080fd5b6103fa610b73565b604051808273ffffffffffffffffffffffffffffffffffffffff1673ffffffffffffffffffffffffffffffffffffffff16815260200191505060405180910390f35b341561044757600080fd5b61044f610b9f565b6040518080602001828103825283818151815260200191508051906020019080838360005b8381101561048f578082015181840152602081019050610474565b50505050905090810190601f1680156104bc5780820380516001836020036101000a031916815260200191505b509250505060405180910390f35b34156104d557600080fd5b610501600480803573ffffffffffffffffffffffffffffffffffffffff16906020019091905050610c4a565b604051808215151515815260200191505060405180910390f35b341561052657600080fd5b61055b600480803573ffffffffffffffffffffffffffffffffffffffff16906020019091908035906020019091905050610d0a565b604051808215151515815260200191505060405180910390f35b341561058057600080fd5b6105966004808035906020019091905050610dd3565b604051808215151515815260200191505060405180910390f35b34156105bb57600080fd5b610606600480803573ffffffffffffffffffffffffffffffffffffffff1690602001909190803573ffffffffffffffffffffffffffffffffffffffff16906020019091905050610e67565b6040518082815260200191505060405180910390f35b610624610f5c565b60006003018054600181600116156101000203166002900480601f0160208091040260200160405190810160405280929190818152602001828054600181600116156101000203166002900480156106bd5780601f10610692576101008083540402835291602001916106bd565b820191906000526020600020905b8154815290600101906020018083116106a057829003601f168201915b5050505050905090565b60008073__TokenLib______________________________638ca979ca909185856040518463ffffffff167c0100000000000000000000000000000000000000000000000000000000028152600401808481526020018373ffffffffffffffffffffffffffffffffffffffff1673ffffffffffffffffffffffffffffffffffffffff168152602001828152602001935050505060206040518083038186803b151561077157600080fd5b5af4151561077e57600080fd5b50505060405180519050905092915050565b60008060050154905090565b60008073__TokenLib______________________________6321a6a23d90918686866040518563ffffffff167c0100000000000000000000000000000000000000000000000000000000028152600401808581526020018473ffffffffffffffffffffffffffffffffffffffff1673ffffffffffffffffffffffffffffffffffffffff1681526020018373ffffffffffffffffffffffffffffffffffffffff1673ffffffffffffffffffffffffffffffffffffffff16815260200182815260200194505050505060206040518083038186803b151561087a57600080fd5b5af4151561088757600080fd5b5050506040518051905090509392505050565b60008060070160149054906101000a900460ff16905090565b60008060060154905090565b60008073__TokenLib______________________________63a7ccd77690916040518263ffffffff167c01000000000000000000000000000000000000000000000000000000000281526004018082815260200191505060206040518083038186803b151561092d57600080fd5b5af4151561093a57600080fd5b50505060405180519050905090565b60008073__TokenLib______________________________633af00d0f9091846040518363ffffffff167c0100000000000000000000000000000000000000000000000000000000028152600401808381526020018273ffffffffffffffffffffffffffffffffffffffff1673ffffffffffffffffffffffffffffffffffffffff1681526020019250505060206040518083038186803b15156109eb57600080fd5b5af415156109f857600080fd5b505050604051805190509050919050565b60008073__TokenLib______________________________636269321c9091846040518363ffffffff167c0100000000000000000000000000000000000000000000000000000000028152600401808381526020018281526020019250505060206040518083038186803b1515610a7f57600080fd5b5af41515610a8c57600080fd5b505050604051805190509050919050565b60008073__TokenLib______________________________63bd03185c90918686866040518563ffffffff167c0100000000000000000000000000000000000000000000000000000000028152600401808581526020018473ffffffffffffffffffffffffffffffffffffffff1673ffffffffffffffffffffffffffffffffffffffff1681526020018381526020018215151515815260200194505050505060206040518083038186803b1515610b5357600080fd5b5af41515610b6057600080fd5b5050506040518051905090509392505050565b60008060070160009054906101000a900473ffffffffffffffffffffffffffffffffffffffff16905090565b610ba7610f5c565b60006004018054600181600116156101000203166002900480601f016020809104026020016040519081016040528092919081815260200182805460018160011615610100020316600290048015610c405780601f10610c1557610100808354040283529160200191610c40565b820191906000526020600020905b815481529060010190602001808311610c2357829003601f168201915b5050505050905090565b60008073__TokenLib______________________________636f71ca3c9091846040518363ffffffff167c0100000000000000000000000000000000000000000000000000000000028152600401808381526020018273ffffffffffffffffffffffffffffffffffffffff1673ffffffffffffffffffffffffffffffffffffffff1681526020019250505060206040518083038186803b1515610cec57600080fd5b5af41515610cf957600080fd5b505050604051805190509050919050565b60008073__TokenLib______________________________63d4b1770a909185856040518463ffffffff167c0100000000000000000000000000000000000000000000000000000000028152600401808481526020018373ffffffffffffffffffffffffffffffffffffffff1673ffffffffffffffffffffffffffffffffffffffff168152602001828152602001935050505060206040518083038186803b1515610db457600080fd5b5af41515610dc157600080fd5b50505060405180519050905092915050565b60008073__TokenLib______________________________63f8f095f29091846040518363ffffffff167c0100000000000000000000000000000000000000000000000000000000028152600401808381526020018281526020019250505060206040518083038186803b1515610e4957600080fd5b5af41515610e5657600080fd5b505050604051805190509050919050565b60008073__TokenLib______________________________63ac9b44f7909185856040518463ffffffff167c0100000000000000000000000000000000000000000000000000000000028152600401808481526020018373ffffffffffffffffffffffffffffffffffffffff1673ffffffffffffffffffffffffffffffffffffffff1681526020018273ffffffffffffffffffffffffffffffffffffffff1673ffffffffffffffffffffffffffffffffffffffff168152602001935050505060206040518083038186803b1515610f3d57600080fd5b5af41515610f4a57600080fd5b50505060405180519050905092915050565b6020604051908101604052806000815250905600a165627a7a7230582035821fa7684ebf7449cc3af25dc1a947ff0cbad3b9bcfabbbeb662ff454d2b980029",
  "source": "pragma solidity ^0.4.21;\n\nimport \"./TokenLib.sol\";\n\ncontract TokenLibTestContract {\n  using TokenLib for TokenLib.TokenStorage;\n\n  TokenLib.TokenStorage token;\n\n  event Transfer(address indexed from, address indexed to, uint256 value);\n  event Approval(address indexed owner, address indexed spender, uint256 value);\n  event OwnerChange(address from, address to);\n  event Burn(address indexed burner, uint256 value);\n  event MintingClosed(bool mintingClosed);\n\n  function TokenLibTestContract(address owner,\n                                string name,\n                                string symbol,\n                                uint8 decimals,\n                                uint256 initialSupply,\n                                bool allowMinting) public\n  {\n    token.init(owner, name, symbol, decimals, initialSupply, allowMinting);\n  }\n\n  function owner()  public view returns (address) {\n    return token.owner;\n  }\n\n  function name()  public view returns (string) {\n    return token.name;\n  }\n\n  function symbol()  public view returns (string) {\n    return token.symbol;\n  }\n\n  function decimals()  public view returns (uint8) {\n    return token.decimals;\n  }\n\n  function totalSupply()  public view returns (uint256) {\n    return token.totalSupply;\n  }\n\n  function initialSupply()  public view returns (uint256) {\n    return token.initialSupply;\n  }\n\n  function balanceOf(address who)  public view returns (uint256) {\n    return token.balanceOf(who);\n  }\n\n  function allowance(address _owner, address _spender)  public view returns (uint256) {\n    return token.allowance(_owner, _spender);\n  }\n\n  function transfer(address to, uint value)  public returns (bool ok) {\n    return token.transfer(to, value);\n  }\n\n  function transferFrom(address from, address to, uint value)  public returns (bool ok) {\n    return token.transferFrom(from, to, value);\n  }\n\n  function approve(address spender, uint value)  public returns (bool ok) {\n    return token.approve(spender, value);\n  }\n\n  function approveChange(address spender, uint valueChange, bool increase)  public returns (bool ok) {\n    return token.approveChange(spender, valueChange, increase);\n  }\n\n  function changeOwner(address newOwner)  public returns (bool ok) {\n    return token.changeOwner(newOwner);\n  }\n\n  function mintToken(uint amount)  public returns (bool ok) {\n    return token.mintToken(amount);\n  }\n\n  function closeMint()  public returns (bool ok) {\n    return token.closeMint();\n  }\n\n  function burnToken(uint amount)  public returns (bool ok) {\n    return token.burnToken(amount);\n  }\n}\n",
  "sourcePath": "/Users/hackdom/Projects/ethereum-libraries-token/contracts/TokenLibTestContract.sol",
  "compiler": {
    "name": "solc",
    "version": "0.4.21+commit.dfe3193c.Emscripten.clang"
  },
  "schemaVersion": "2.0.0",
  "updatedAt": "2018-04-09T21:06:57.643Z"
}